{
  "_format": "hh-sol-artifact-1",
  "contractName": "TaskContract",
  "sourceName": "contracts/TaskContract.sol",
  "abi": [
    {
      "anonymous": false,
      "inputs": [
        {
          "indexed": false,
          "internalType": "address",
          "name": "recipient",
          "type": "address"
        },
        {
          "indexed": false,
          "internalType": "uint256",
          "name": "taskId",
          "type": "uint256"
        }
      ],
      "name": "AddTask",
      "type": "event"
    },
    {
      "anonymous": false,
      "inputs": [
        {
          "indexed": false,
          "internalType": "uint256",
          "name": "taskId",
          "type": "uint256"
        },
        {
          "indexed": false,
          "internalType": "bool",
          "name": "isDeleted",
          "type": "bool"
        }
      ],
      "name": "DeleteTask",
      "type": "event"
    },
    {
      "inputs": [
        {
          "internalType": "string",
          "name": "_taskText",
          "type": "string"
        },
        {
          "internalType": "bool",
          "name": "_isDeleted",
          "type": "bool"
        }
      ],
      "name": "addTask",
      "outputs": [],
      "stateMutability": "nonpayable",
      "type": "function"
    },
    {
      "inputs": [
        {
          "internalType": "uint256",
          "name": "_taskId",
          "type": "uint256"
        },
        {
          "internalType": "bool",
          "name": "_isDeleted",
          "type": "bool"
        }
      ],
      "name": "deleteTask",
      "outputs": [],
      "stateMutability": "nonpayable",
      "type": "function"
    },
    {
      "inputs": [],
      "name": "getMyCompletedTasks",
      "outputs": [
        {
          "components": [
            {
              "internalType": "uint256",
              "name": "id",
              "type": "uint256"
            },
            {
              "internalType": "string",
              "name": "taskText",
              "type": "string"
            },
            {
              "internalType": "bool",
              "name": "isDeleted",
              "type": "bool"
            }
          ],
          "internalType": "struct TaskContract.Task[]",
          "name": "",
          "type": "tuple[]"
        }
      ],
      "stateMutability": "view",
      "type": "function"
    },
    {
      "inputs": [],
      "name": "getMyUncompletedTasks",
      "outputs": [
        {
          "components": [
            {
              "internalType": "uint256",
              "name": "id",
              "type": "uint256"
            },
            {
              "internalType": "string",
              "name": "taskText",
              "type": "string"
            },
            {
              "internalType": "bool",
              "name": "isDeleted",
              "type": "bool"
            }
          ],
          "internalType": "struct TaskContract.Task[]",
          "name": "",
          "type": "tuple[]"
        }
      ],
      "stateMutability": "view",
      "type": "function"
    }
  ],
  "bytecode": "0x608060405234801561001057600080fd5b5061122f806100206000396000f3fe608060405234801561001057600080fd5b506004361061004c5760003560e01c80631368cfdc1461005157806320df45811461006f5780637f8737d81461008b578063aaba2907146100a9575b600080fd5b6100596100c5565b6040516100669190610ae8565b60405180910390f35b61008960048036038101906100849190610c7f565b6103bb565b005b6100936104de565b6040516100a09190610ae8565b60405180910390f35b6100c360048036038101906100be9190610d07565b6107d4565b005b60606000808054905067ffffffffffffffff8111156100e7576100e6610b28565b5b60405190808252806020026020018201604052801561012057816020015b61010d6108ef565b8152602001906001900390816101055790505b5090506000805b600080549050811015610301573373ffffffffffffffffffffffffffffffffffffffff166001600083815260200190815260200160002060009054906101000a900473ffffffffffffffffffffffffffffffffffffffff1673ffffffffffffffffffffffffffffffffffffffff161480156101d8575060011515600082815481106101b5576101b4610d47565b5b906000526020600020906003020160020160009054906101000a900460ff161515145b156102ee57600081815481106101f1576101f0610d47565b5b90600052602060002090600302016040518060600160405290816000820154815260200160018201805461022490610da5565b80601f016020809104026020016040519081016040528092919081815260200182805461025090610da5565b801561029d5780601f106102725761010080835404028352916020019161029d565b820191906000526020600020905b81548152906001019060200180831161028057829003601f168201915b505050505081526020016002820160009054906101000a900460ff1615151515815250508383815181106102d4576102d3610d47565b5b602002602001018190525081806102ea90610e05565b9250505b80806102f990610e05565b915050610127565b5060008167ffffffffffffffff81111561031e5761031d610b28565b5b60405190808252806020026020018201604052801561035757816020015b6103446108ef565b81526020019060019003908161033c5790505b50905060005b828110156103b15783818151811061037857610377610d47565b5b602002602001015182828151811061039357610392610d47565b5b602002602001018190525080806103a990610e05565b91505061035d565b5080935050505090565b60008080549050905060006040518060600160405280838152602001858152602001841515815250908060018154018082558091505060019003906000526020600020906003020160009091909190915060008201518160000155602082015181600101908161042b9190610ff9565b5060408201518160020160006101000a81548160ff0219169083151502179055505050336001600083815260200190815260200160002060006101000a81548173ffffffffffffffffffffffffffffffffffffffff021916908373ffffffffffffffffffffffffffffffffffffffff1602179055507f1f54e1ba1832d428fbd7e7792beaf62b1fc5a382c207ffd614209c1413e94fda33826040516104d192919061111b565b60405180910390a1505050565b60606000808054905067ffffffffffffffff811115610500576104ff610b28565b5b60405190808252806020026020018201604052801561053957816020015b6105266108ef565b81526020019060019003908161051e5790505b5090506000805b60008054905081101561071a573373ffffffffffffffffffffffffffffffffffffffff166001600083815260200190815260200160002060009054906101000a900473ffffffffffffffffffffffffffffffffffffffff1673ffffffffffffffffffffffffffffffffffffffff161480156105f1575060001515600082815481106105ce576105cd610d47565b5b906000526020600020906003020160020160009054906101000a900460ff161515145b15610707576000818154811061060a57610609610d47565b5b90600052602060002090600302016040518060600160405290816000820154815260200160018201805461063d90610da5565b80601f016020809104026020016040519081016040528092919081815260200182805461066990610da5565b80156106b65780601f1061068b576101008083540402835291602001916106b6565b820191906000526020600020905b81548152906001019060200180831161069957829003601f168201915b505050505081526020016002820160009054906101000a900460ff1615151515815250508383815181106106ed576106ec610d47565b5b6020026020010181905250818061070390610e05565b9250505b808061071290610e05565b915050610540565b5060008167ffffffffffffffff81111561073757610736610b28565b5b60405190808252806020026020018201604052801561077057816020015b61075d6108ef565b8152602001906001900390816107555790505b50905060005b828110156107ca5783818151811061079157610790610d47565b5b60200260200101518282815181106107ac576107ab610d47565b5b602002602001018190525080806107c290610e05565b915050610776565b5080935050505090565b3373ffffffffffffffffffffffffffffffffffffffff166001600084815260200190815260200160002060009054906101000a900473ffffffffffffffffffffffffffffffffffffffff1673ffffffffffffffffffffffffffffffffffffffff1614610875576040517f08c379a000000000000000000000000000000000000000000000000000000000815260040161086c906111a1565b60405180910390fd5b806000838154811061088a57610889610d47565b5b906000526020600020906003020160020160006101000a81548160ff0219169083151502179055507ff88a35c3d2016c409a46570b994a17b408dbc83c14a03f521512d50b85386d0682826040516108e39291906111d0565b60405180910390a15050565b604051806060016040528060008152602001606081526020016000151581525090565b600081519050919050565b600082825260208201905092915050565b6000819050602082019050919050565b6000819050919050565b6109518161093e565b82525050565b600081519050919050565b600082825260208201905092915050565b60005b83811015610991578082015181840152602081019050610976565b60008484015250505050565b6000601f19601f8301169050919050565b60006109b982610957565b6109c38185610962565b93506109d3818560208601610973565b6109dc8161099d565b840191505092915050565b60008115159050919050565b6109fc816109e7565b82525050565b6000606083016000830151610a1a6000860182610948565b5060208301518482036020860152610a3282826109ae565b9150506040830151610a4760408601826109f3565b508091505092915050565b6000610a5e8383610a02565b905092915050565b6000602082019050919050565b6000610a7e82610912565b610a88818561091d565b935083602082028501610a9a8561092e565b8060005b85811015610ad65784840389528151610ab78582610a52565b9450610ac283610a66565b925060208a01995050600181019050610a9e565b50829750879550505050505092915050565b60006020820190508181036000830152610b028184610a73565b905092915050565b6000604051905090565b600080fd5b600080fd5b600080fd5b600080fd5b7f4e487b7100000000000000000000000000000000000000000000000000000000600052604160045260246000fd5b610b608261099d565b810181811067ffffffffffffffff82111715610b7f57610b7e610b28565b5b80604052505050565b6000610b92610b0a565b9050610b9e8282610b57565b919050565b600067ffffffffffffffff821115610bbe57610bbd610b28565b5b610bc78261099d565b9050602081019050919050565b82818337600083830152505050565b6000610bf6610bf184610ba3565b610b88565b905082815260208101848484011115610c1257610c11610b23565b5b610c1d848285610bd4565b509392505050565b600082601f830112610c3a57610c39610b1e565b5b8135610c4a848260208601610be3565b91505092915050565b610c5c816109e7565b8114610c6757600080fd5b50565b600081359050610c7981610c53565b92915050565b60008060408385031215610c9657610c95610b14565b5b600083013567ffffffffffffffff811115610cb457610cb3610b19565b5b610cc085828601610c25565b9250506020610cd185828601610c6a565b9150509250929050565b610ce48161093e565b8114610cef57600080fd5b50565b600081359050610d0181610cdb565b92915050565b60008060408385031215610d1e57610d1d610b14565b5b6000610d2c85828601610cf2565b9250506020610d3d85828601610c6a565b9150509250929050565b7f4e487b7100000000000000000000000000000000000000000000000000000000600052603260045260246000fd5b7f4e487b7100000000000000000000000000000000000000000000000000000000600052602260045260246000fd5b60006002820490506001821680610dbd57607f821691505b602082108103610dd057610dcf610d76565b5b50919050565b7f4e487b7100000000000000000000000000000000000000000000000000000000600052601160045260246000fd5b6000610e108261093e565b91507fffffffffffffffffffffffffffffffffffffffffffffffffffffffffffffffff8203610e4257610e41610dd6565b5b600182019050919050565b60008190508160005260206000209050919050565b60006020601f8301049050919050565b600082821b905092915050565b600060088302610eaf7fffffffffffffffffffffffffffffffffffffffffffffffffffffffffffffffff82610e72565b610eb98683610e72565b95508019841693508086168417925050509392505050565b6000819050919050565b6000610ef6610ef1610eec8461093e565b610ed1565b61093e565b9050919050565b6000819050919050565b610f1083610edb565b610f24610f1c82610efd565b848454610e7f565b825550505050565b600090565b610f39610f2c565b610f44818484610f07565b505050565b5b81811015610f6857610f5d600082610f31565b600181019050610f4a565b5050565b601f821115610fad57610f7e81610e4d565b610f8784610e62565b81016020851015610f96578190505b610faa610fa285610e62565b830182610f49565b50505b505050565b600082821c905092915050565b6000610fd060001984600802610fb2565b1980831691505092915050565b6000610fe98383610fbf565b9150826002028217905092915050565b61100282610957565b67ffffffffffffffff81111561101b5761101a610b28565b5b6110258254610da5565b611030828285610f6c565b600060209050601f8311600181146110635760008415611051578287015190505b61105b8582610fdd565b8655506110c3565b601f19841661107186610e4d565b60005b8281101561109957848901518255600182019150602085019450602081019050611074565b868310156110b657848901516110b2601f891682610fbf565b8355505b6001600288020188555050505b505050505050565b600073ffffffffffffffffffffffffffffffffffffffff82169050919050565b60006110f6826110cb565b9050919050565b611106816110eb565b82525050565b6111158161093e565b82525050565b600060408201905061113060008301856110fd565b61113d602083018461110c565b9392505050565b600082825260208201905092915050565b7f54686973207461736b20646f6573206e6f742062656c6f6e6720746f20796f75600082015250565b600061118b602083611144565b915061119682611155565b602082019050919050565b600060208201905081810360008301526111ba8161117e565b9050919050565b6111ca816109e7565b82525050565b60006040820190506111e5600083018561110c565b6111f260208301846111c1565b939250505056fea264697066735822122021c837f67009c8c14785e29893cee6ff5953fc191e922a73c4c1bd4d9a1d43ff64736f6c63430008130033",
  "linkReferences": {},
  "deployedLinkReferences": {}
}